:100000005AC0000075C0000073C0000071C000003D
:100010006FC000006DC000006BC0000069C0000030
:1000200067C0000065C0000063C0000061C0000040
:100030005FC000005DC000005BC0000059C0000050
:1000400057C0000055C0000017C2000051C000009A
:1000500040C200004DC000004BC0000049C000007D
:1000600047C0000045C0000043C0000041C0000080
:100070003FC000003DC0000059C2000039C0000070
:1000800082C2000035C0000033C00000AB00B800E1
:10009000C500D200DF00EC00FB001401260138018E
:1000A0004A015C016E018401A401B601C801DA01B4
:1000B000EC01FE01140211241FBECFEFD0E1DEBF20
:1000C000CDBF11E0A0E0B1E0E6EFF5E000E00BBF4E
:1000D00002C007900D92A633B107D9F721E0A6E33D
:1000E000B1E001C01D92AE33B207E1F702D081C288
:1000F00087CFB0D166E080E001D0FFCF813039F00A
:1001000018F0823039F008C03E9A3F9805C03E98FA
:100110003F9802C03E9A3F9A86B1887F86B986B1E1
:10012000682B66B9379A0895E82FE695E695E69527
:100130008770613009F46EC020F0623009F4FAC0B3
:1001400008954E2F50E04730510508F082C1FA0162
:10015000EA5BFF4F45C24AB321E030E0B90102C07B
:10016000660F771F8A95E2F7CB01842B8ABB08952F
:1001700047B321E030E0B90102C0660F771F8A95CE
:10018000E2F7CB01842B87BB089544B321E030E034
:10019000B90102C0660F771F8A95E2F7CB01842B65
:1001A00084BB089541B321E030E0B90102C0660F7D
:1001B000771F8A95E2F7CB01842B81BB089542B16A
:1001C00021E030E0B90102C0660F771F8A95E2F79F
:1001D000CB01842B82B90895E1E6F0E0408121E073
:1001E00030E0B90102C0660F771F8A95E2F7CB01B4
:1001F000842B80830895E4E6F0E0408121E030E044
:10020000B90102C0660F771F8A95E2F7CB01842BF4
:10021000808308954E2F50E04730510508F019C1F2
:10022000FA01E35BFF4FDCC14AB321E030E0B901E2
:1002300002C0660F771F8A95E2F7CB018095942F55
:1002400098239ABB9BB389238BBB089547B321E0C6
:1002500030E0B90102C0660F771F8A95E2F7CB0143
:100260008095942F982397BB98B3892388BB0895D2
:1002700044B321E030E0B90102C0660F771F8A95D0
:10028000E2F7CB018095942F982394BB95B38923F3
:1002900085BB089541B321E030E0B90102C0660F8B
:1002A000771F8A95E2F7CB018095942F982391BB15
:1002B00092B3892382BB089542B121E030E0B901B5
:1002C00002C0660F771F8A95E2F7CB018095942FC5
:1002D000982392B993B1892383B90895E1E6F0E0B8
:1002E000408121E030E0B90102C0660F771F8A9596
:1002F000E2F7CB018095942F98239083E2E6F0E01B
:100300009081892380830895E4E6F0E0408121E034
:1003100030E0B90102C0660F771F8A95E2F7CB0182
:100320008095942F98239083E5E6F0E090818923CF
:10033000808308954E2F50E04730510508F089C062
:10034000FA01EC5AFF4F4CC14AB321E030E0B90149
:1003500002C0660F771F8A95E2F7CB01962F909522
:1003600094239ABB9BB3892B8BBB089547B321E0A1
:1003700030E0B90102C0660F771F8A95E2F7CB0122
:10038000962F9095942397BB98B3892B88BB08959B
:1003900044B321E030E0B90102C0660F771F8A95AF
:1003A000E2F7CB01962F9095942394BB95B3892BBC
:1003B00085BB089541B321E030E0B90102C0660F6A
:1003C000771F8A95E2F7CB01962F9095942391BBE6
:1003D00092B3892B82BB089542B121E030E0B9018C
:1003E00002C0660F771F8A95E2F7CB01962F909592
:1003F000942392B993B1892B83B90895E1E6F0E093
:10040000408121E030E0B90102C0660F771F8A9574
:10041000E2F7CB01962F909594239083E2E6F0E0EB
:100420009081892B80830895E4E6F0E0408121E00B
:1004300030E0B90102C0660F771F8A95E2F7CB0161
:10044000962F909594239083E5E6F0E09081892B98
:10045000808308950F931F93CF9300E011E0C0E0D5
:10046000F80161918F018C2F5FDECF5FC533C1F73B
:10047000CF911F910F9108951F920F920FB60F9277
:1004800011240BB60F922F933F934F935F936F936B
:100490007F938F939F93AF93BF93EF93FF93E091DD
:1004A0003801F0913901309709F00995FF91EF91EA
:1004B000BF91AF919F918F917F916F915F914F917C
:1004C0003F912F910F900BBE0F900FBE0F901F907A
:1004D00018951F920F920FB60F9211240BB60F9220
:1004E0002F933F934F935F936F937F938F939F933C
:1004F000AF93BF93EF93FF93E0913601F0913701F3
:10050000309709F00995FF91EF91BF91AF919F91BD
:100510008F917F916F915F914F913F912F910F90AC
:100520000BBE0F900FBE0F901F9018951F920F9249
:100530000FB60F9211240BB60F922F933F934F9348
:100540005F936F937F938F939F93AF93BF93EF933B
:10055000FF93E0913C01F0913D01309709F009953E
:10056000FF91EF91BF91AF919F918F917F916F918B
:100570005F914F913F912F910F900BBE0F900FBE47
:100580000F901F9018951F920F920FB60F92112483
:100590000BB60F922F933F934F935F936F937F937D
:1005A0008F939F93AF93BF93EF93FF93E0913A01A3
:1005B000F0913B01309709F00995FF91EF91BF91C0
:1005C000AF919F918F917F916F915F914F913F91EB
:1005D0002F910F900BBE0F900FBE0F901F9018958C
:1005E000EE0FFF1F0024001C0BBE0790F691E02DBC
:0605F0000994F894FFCF0E
:1005F60000000000000000000000000000000000F5
:1006060000000000000000000000010000000100E2
:1006160000000000000000000100000000000000D3
:06062600000000000000CE
:00000001FF
