S012000061746D656761313238612E73726563A7
S113000068C0000083C0000081C000007FC0000001
S11300107DC000007BC0000079C0000077C00000F4
S113002075C0000073C0000071C000006FC0000004
S11300306DC000006BC0000069C0000067C0000014
S113004065C0000063C00000ADC400005FC00000D4
S1130050D6C400005BC0000059C0000057C00000B7
S113006055C0000053C0000051C000004FC0000044
S11300704DC000004BC00000EFC4000047C00000AA
S113008018C5000043C0000041C00000ED00FA00A4
S11300900701140121012E013D01560168017A0175
S11300A08C019E01B001C601E601F8010A021C029E
S11300B02E024002560290029D02AA02B702C40216
S11300C0D102E002FB0209031703250333034103B2
S11300D0510311241FBECFEFD0E1DEBFCDBF11E02D
S11300E0A0E0B1E0ECEBFBE000E00BBF02C0079046
S11300F00D92A633B107D9F721E0A6E3B1E001C020
S11301001D92AE33B207E1F702D056C579CFE4D1E0
S11301107ED366E080E028D033D48C0162E081E0B5
S1130120A8D39801ADECBCEC38D5EC01D695C795B5
S1130130D695C795D695C795BE0180E090E0A8D323
S11301408EE2A4D3CE01880F991FCC0FDD1FCC0FF4
S1130150DD1FCC0FDD1FC80FD91FB8016C1B7D0B31
S113016080E090E095D3D8CF813039F018F0823018
S113017039F008C03E9A3F9805C03E983F9802C0A7
S11301803E9A3F9A86B1887F86B986B1682B66B954
S1130190379A089597B1907E97B997B1892B87B90B
S11301A0369A3699FECF84B195B10895E82FE69535
S11301B0E695E6958770613009F46EC020F06230F0
S11301C009F4FAC008954E2F50E04730510508F065
S11301D082C1FA01EA5BFF4FD7C44AB321E030E0A1
S11301E0B90102C0660F771F8A95E2F7CB01842B11
S11301F08ABB089547B321E030E0B90102C0660F1D
S1130200771F8A95E2F7CB01842B87BB089544B30B
S113021021E030E0B90102C0660F771F8A95E2F74A
S1130220CB01842B84BB089541B321E030E0B901B4
S113023002C0660F771F8A95E2F7CB01842B81BB3E
S1130240089542B121E030E0B90102C0660F771F82
S11302508A95E2F7CB01842B82B90895E1E6F0E0B8
S1130260408121E030E0B90102C0660F771F8A9512
S1130270E2F7CB01842B80830895E4E6F0E040812B
S113028021E030E0B90102C0660F771F8A95E2F7DA
S1130290CB01842B808308954E2F50E047305105C5
S11302A008F019C1FA01E35BFF4F6EC44AB321E0C1
S11302B030E0B90102C0660F771F8A95E2F7CB01DF
S11302C08095942F98239ABB9BB389238BBB089565
S11302D047B321E030E0B90102C0660F771F8A9569
S11302E0E2F7CB018095942F982397BB98B3892389
S11302F088BB089544B321E030E0B90102C0660F21
S1130300771F8A95E2F7CB018095942F982394BBAD
S113031095B3892385BB089541B321E030E0B90149
S113032002C0660F771F8A95E2F7CB018095942F60
S1130330982391BB92B3892382BB089542B121E0F3
S113034030E0B90102C0660F771F8A95E2F7CB014E
S11303508095942F982392B993B1892383B90895F2
S1130360E1E6F0E0408121E030E0B90102C0660F2F
S1130370771F8A95E2F7CB018095942F9823908379
S1130380E2E6F0E09081892380830895E4E6F0E0DA
S1130390408121E030E0B90102C0660F771F8A95E1
S11303A0E2F7CB018095942F98239083E5E6F0E063
S11303B090818923808308954E2F50E04730510562
S11303C008F089C0FA01EC5AFF4FDEC34AB321E0BA
S11303D030E0B90102C0660F771F8A95E2F7CB01BE
S11303E0962F909594239ABB9BB3892B8BBB08952E
S11303F047B321E030E0B90102C0660F771F8A9548
S1130400E2F7CB01962F9095942397BB98B3892B51
S113041088BB089544B321E030E0B90102C0660FFF
S1130420771F8A95E2F7CB01962F9095942394BB7E
S113043095B3892B85BB089541B321E030E0B90120
S113044002C0660F771F8A95E2F7CB01962F90952D
S1130450942391BB92B3892B82BB089542B121E0CE
S113046030E0B90102C0660F771F8A95E2F7CB012D
S1130470962F9095942392B993B1892B83B90895BB
S1130480E1E6F0E0408121E030E0B90102C0660F0E
S1130490771F8A95E2F7CB01962F9095942390834A
S11304A0E2E6F0E09081892B80830895E4E6F0E0B1
S11304B0408121E030E0B90102C0660F771F8A95C0
S11304C0E2F7CB01962F909594239083E5E6F0E034
S11304D09081892B808308950F931F93CF9300E01D
S11304E011E0C0E0F80161918F018C2F5FDECF5FD6
S11304F0C533C1F7CF911F910F910895E82FE69569
S1130500E695E6958770613009F069C04E2F50E09A
S11305104730510508F0D4C0FA01E55AFF4F34C3FF
S11305204BB321E030E0B90102C0660F771F8A9512
S1130530E2F7CB01842B8BBB089548B321E030E074
S1130540B90102C0660F771F8A95E2F7CB01842BAD
S113055088BB089545B321E030E0B90102C0660FBD
S1130560771F8A95E2F7CB01842B85BB089542B3AC
S113057021E030E0B90102C0660F771F8A95E2F7E7
S1130580CB01842B82BB089543B121E030E0B90153
S113059002C0660F771F8A95E2F7CB01842B83B9DB
S11305A00895E2E6F0E0408121E030E0B90102C0C4
S11305B0660F771F8A95E2F7CB01842B8083089519
S11305C0E5E6F0E0408121E030E0B90102C0660FC9
S11305D0771F8A95E2F7CB01842B808308956111FC
S11305E06FC04E2F50E04730510508F069C0FA0142
S11305F0EE59FF4FC9C24BB321E030E0B90102C04C
S1130600660F771F8A95E2F7CB01809584238BBB15
S1130610089548B321E030E0B90102C0660F771FA6
S11306208A95E2F7CB018095842388BB089545B36E
S113063021E030E0B90102C0660F771F8A95E2F726
S1130640CB018095842385BB089542B321E030E03B
S1130650B90102C0660F771F8A95E2F7CB01809536
S1130660842382BB089543B121E030E0B90102C084
S1130670660F771F8A95E2F7CB018095842383B9AF
S11306800895E2E6F0E0408121E030E0B90102C0E3
S1130690660F771F8A95E2F7CB01809584238083C8
S11306A00895E5E6F0E0408121E030E0B90102C0C0
S11306B0660F771F8A95E2F7CB01809584238083A8
S11306C00895CF93C82F60E085E018DFC4FB662748
S11306D060F980E013DFC5FB662760F981E00EDF77
S11306E0C6FB662760F982E009DF6C2F661F662768
S11306F0661F83E003DF61E087E000DF8FEC97E0B3
S11307000197F1F700C0000060E087E0F7DE8FECAE
S113071097E00197F1F700C000006C2F617080E052
S1130720EDDEC1FB662760F981E0E8DEC2FB6627E7
S113073060F982E0E3DEC3FB662760F983E0DEDE76
S113074061E087E0DBDE8FEC97E00197F1F700C012
S1130750000060E087E0D2DE8FEC97E00197F1F7CC
S113076000C00000CF910895CF93C82F61E085E0C9
S1130770C5DEC4FB662760F980E0C0DEC5FB6627E2
S113078060F981E0BBDEC6FB662760F982E0B6DE75
S11307906C2F661F6627661F83E0B0DE61E087E08A
S11307A0ADDE8FEC97E00197F1F700C0000060E048
S11307B087E0A4DE8FEC97E00197F1F700C000001A
S11307C06C2F617080E09ADEC1FB662760F981E0DE
S11307D095DEC2FB662760F982E090DEC3FB6627E4
S11307E060F983E08BDE61E087E088DE8FEC97E0E0
S11307F00197F1F700C0000060E087E07FDE8FEC36
S113080097E00197F1F700C00000CF9108952FE71A
S113081088E391E0215080409040E1F700C000005F
S113082082E04FDF8FEC97E00197F1F700C0000002
S113083088E247DF8FEC97E00197F1F700C00000F2
S11308408CE03FDF8FEC97E00197F1F700C00000E8
S113085081E037DF8FE99FE00197F1F700C00000E6
S113086086E02FDF8FEC97E00197F1F700C00000DE
S11308700895811103C080E8860F06C0813019F401
S113088080EC860F01C080E81CCF08956DCF0895D9
S11308904F925F926F927F92AF92BF92CF92DF920C
S11308A0EF92FF921F93CF93DF93CDB7DEB7649798
S11308B00FB6F894DEBF0FBECDBF6B017C0161158E
S11308C071058105910519F480E34EDF45C0992334
S11308D054F4F094E094D094C094C11CD11CE11C55
S11308E0F11C8DE241DF1C141D041E041F04A4F539
S11308F010E00F2EFAE04F2E512C612C712CF02DAC
S113090001C0182FAA24A394B12CAC0EBD1EA10EB5
S1130910B11CC701B601A30192011AD1605DF501B2
S11309206083C22ED32EE42EF52E81E0810F1C1499
S11309301D041E041F042CF3F12E11236CF0E1E0BE
S1130940F0E0EC0FFD1FEF0DF11DF7FCFA9580812F
S11309500BDFFA94FF209CF764960FB6F894DEBF81
S11309600FBECDBFDF91CF911F91FF90EF90DF902D
S1130970CF90BF90AF907F906F905F904F9008950D
S113098080E008DC9C01A8E8B3E107D1DC01CB01DD
S1130990072E7AE0B695A795979587957A95D1F71E
S11309A0702D08951F920F920FB60F9211240BB65B
S11309B00F922F933F934F935F936F937F938F93F4
S11309C09F93AF93BF93EF93FF93E0913801F0911E
S11309D03901309709F00995FF91EF91BF91AF91DB
S11309E09F918F917F916F915F914F913F912F9143
S11309F00F900BBE0F900FBE0F901F9018951F9273
S1130A000F920FB60F9211240BB60F922F933F93B0
S1130A104F935F936F937F938F939F93AF93BF9302
S1130A20EF93FF93E0913601F0913701309709F08D
S1130A300995FF91EF91BF91AF919F918F917F9114
S1130A406F915F914F913F912F910F900BBE0F903B
S1130A500FBE0F901F9018951F920F920FB60F9212
S1130A6011240BB60F922F933F934F935F936F9381
S1130A707F938F939F93AF93BF93EF93FF93E091F3
S1130A803C01F0913D01309709F00995FF91EF91F8
S1130A90BF91AF919F918F917F916F915F914F9192
S1130AA03F912F910F900BBE0F900FBE0F901F9090
S1130AB018951F920F920FB60F9211240BB60F9236
S1130AC02F933F934F935F936F937F938F939F9352
S1130AD0AF93BF93EF93FF93E0913A01F0913B0101
S1130AE0309709F00995FF91EF91BF91AF919F91D4
S1130AF08F917F916F915F914F913F912F910F90C3
S1130B000BBE0F900FBE0F901F901895A1E21A2EE6
S1130B10AA1BBB1BFD010DC0AA1FBB1FEE1FFF1F9D
S1130B20A217B307E407F50720F0A21BB30BE40BED
S1130B30F50B661F771F881F991F1A9469F7609534
S1130B407095809590959B01AC01BD01CF010895EE
S1130B50052E97FB16F400940FD057FD05D0D6DF71
S1130B6007FC02D046F408C0509540953095219575
S1130B703F4F4F4F5F4F08959095809570956195C5
S1130B807F4F8F4F9F4F0895EE0FFF1F0024001CCF
S1130B900BBE0790F691E02D0994A29FB001B39F7C
S1130BA0C001A39F700D811D1124911DB29F700D72
S10F0BB0811D1124911D0895F894FFCFBD
S1130BBC0000000000000000000000000000000025
S1130BCC0000000000000000000001000000010013
S1130BDC0000000000000000010000000000000004
S1090BEC000000000000FF
S9030000FC
