:1000000023C100003EC100003CC100003AC1000015
:1000100038C1000036C1000034C1000032C1000008
:1000200030C100002EC100002CC100002AC1000018
:1000300028C1000026C1000024C1000022C1000028
:1000400020C100001EC100000FC400001AC1000042
:1000500038C4000016C1000014C1000012C1000025
:1000600010C100000EC100000CC100000AC1000058
:1000700008C1000006C1000051C4000002C1000018
:100080007AC40000D3C20000FCC0000074018101EA
:100090008E019B01A801B501C401DD01EF01010240
:1000A0001302250237024D026D027F029102A30264
:1000B000B502C702DD021E0421042104210421042B
:1000C00021042104210437032104210421042104F3
:1000D00021042104210437032104210421042104E3
:1000E0002104210421043F032104210421042104CB
:1000F0002104210421046403210421042104210496
:100100002104210421043F032104210421042104AA
:100110002104210421046903210421042104210470
:100120002104210421046E0321042104210421045B
:100130002104210421047F0321042104210421043A
:10014000210421042104A803210421042104210401
:100150002104210421047303210421042104210426
:100160002104210421048D032104210421042104FC
:10017000210421042104AA032104210421042104CF
:10018000210421042104AA032104210421042104BF
:10019000210421042104AA032104210421042104AF
:1001A000210421042104AA0321042104210421049F
:1001B000210421042104B303210421042104210486
:1001C000210421042104E503210421042104210444
:1001D000210421042104B303210421042104210466
:1001E000210421042104E503210421042104210424
:1001F000210421042104CB0321042104210421042E
:10020000210421042104E9032104210421042104FF
:10021000210421042104E9032104210421042104EF
:10022000210421042104FE032104210421042104CA
:10023000210421042104180421042104210421049F
:10024000210421042104180411241FBECFEFD0E1A2
:10025000DEBFCDBF11E0A0E0B1E0E6EEF9E000E0E6
:100260000BBF02C007900D92A633B107D9F721E06A
:10027000A6E3B1E001C01D92AC3AB207E1F702D0AB
:10028000B0C3BECEB0D166E080E001D0FFCF8130F8
:1002900039F018F0823039F008C03E9A3F9805C016
:1002A0003E983F9802C03E9A3F9A86B1887F86B9B1
:1002B00086B1682B66B9379A0895E82FE695E695DA
:1002C000E6958770613009F46EC020F0623009F461
:1002D000FAC008954E2F50E04730510508F082C112
:1002E000FA01EA5BFF4F74C34AB321E030E0B90181
:1002F00002C0660F771F8A95E2F7CB01842B8ABB79
:10030000089547B321E030E0B90102C0660F771FBE
:100310008A95E2F7CB01842B87BB089544B321E093
:1003200030E0B90102C0660F771F8A95E2F7CB0172
:10033000842B84BB089541B321E030E0B90102C0B1
:10034000660F771F8A95E2F7CB01842B81BB089556
:1003500042B121E030E0B90102C0660F771F8A95F3
:10036000E2F7CB01842B82B90895E1E6F0E0408109
:1003700021E030E0B90102C0660F771F8A95E2F7ED
:10038000CB01842B80830895E4E6F0E0408121E0F6
:1003900030E0B90102C0660F771F8A95E2F7CB0102
:1003A000842B808308954E2F50E04730510508F08C
:1003B00019C1FA01E35BFF4F0BC34AB321E030E000
:1003C000B90102C0660F771F8A95E2F7CB018095CD
:1003D000942F98239ABB9BB389238BBB089547B373
:1003E00021E030E0B90102C0660F771F8A95E2F77D
:1003F000CB018095942F982397BB98B3892388BB12
:10040000089544B321E030E0B90102C0660F771FC0
:100410008A95E2F7CB018095942F982394BB95B3EE
:10042000892385BB089541B321E030E0B90102C0C2
:10043000660F771F8A95E2F7CB018095942F98235A
:1004400091BB92B3892382BB089542B121E030E091
:10045000B90102C0660F771F8A95E2F7CB0180953C
:10046000942F982392B993B1892383B90895E1E633
:10047000F0E0408121E030E0B90102C0660F771F53
:100480008A95E2F7CB018095942F98239083E2E63A
:10049000F0E09081892380830895E4E6F0E04081D4
:1004A00021E030E0B90102C0660F771F8A95E2F7BC
:1004B000CB018095942F98239083E5E6F0E090811E
:1004C0008923808308954E2F50E04730510508F06E
:1004D00089C0FA01EC5AFF4F7BC24AB321E030E0F9
:1004E000B90102C0660F771F8A95E2F7CB01962FFC
:1004F000909594239ABB9BB3892B8BBB089547B3EC
:1005000021E030E0B90102C0660F771F8A95E2F75B
:10051000CB01962F9095942397BB98B3892B88BBDA
:10052000089544B321E030E0B90102C0660F771F9F
:100530008A95E2F7CB01962F9095942394BB95B3BF
:10054000892B85BB089541B321E030E0B90102C099
:10055000660F771F8A95E2F7CB01962F909594232B
:1005600091BB92B3892B82BB089542B121E030E068
:10057000B90102C0660F771F8A95E2F7CB01962F6B
:100580009095942392B993B1892B83B90895E1E6AC
:10059000F0E0408121E030E0B90102C0660F771F32
:1005A0008A95E2F7CB01962F909594239083E2E60B
:1005B000F0E09081892B80830895E4E6F0E04081AB
:1005C00021E030E0B90102C0660F771F8A95E2F79B
:1005D000CB01962F909594239083E5E6F0E09081EF
:1005E000892B808308950F931F93CF9300E011E030
:1005F000C0E0F80161918F018C2F5FDECF5FC533C2
:10060000C1F7CF911F910F91089585ED80937400EC
:10061000E4E7F0E0808184FDFDCF1092A30108950E
:1006200085EC809374001092A30108951F920F929D
:100630000FB60F9211240BB60F922F933F934F9347
:100640005F936F937F938F939F93AF93BF93EF933A
:10065000FF9380917100E82FE87F8E2F90E0893C16
:10066000910508F0EEC0FC01E55AFF4FB1C1809141
:10067000A2018093730085EC80937400E2C0909196
:100680007B0180917A01981780F4E0917B0181E0F1
:100690008E0F80937B01F0E0E458FE4F80818093C1
:1006A000730085EC80937400CCC08091A1018823F5
:1006B00011F0ABDFC6C081E08093A00184EA809393
:1006C00074001092A301BDC080E2809336019DDFCB
:1006D000B8C080E38093360198DFB3C088E380938D
:1006E00036019EDFAEC0E0917B0181E08E0F8093EA
:1006F0007B0180917300F0E0E458FE4F808390917D
:100700007B0180917A01981720F485EC8093740026
:1007100098C085E88093740094C0E0917B0181E0EB
:100720008E0F80937B0180917300F0E0E458FE4FC0
:1007300080838091A101882311F067DF82C081E06E
:100740008093A00184EA809374001092A30179C081
:100750005CDF77C083E08093A3011092370185ECC2
:10076000809374006EC080913701803280F4E091F4
:10077000370181E08E0F8093370180917300F0E0A4
:10078000E85CFE4F808385EC809374005AC085E856
:100790008093740056C044DF80913701803230F47A
:1007A000E0913701F0E0E85CFE4F108240913701A4
:1007B00050E060E070E0E0919C01F0919D0188E3E1
:1007C00091E00995109237013CC085E88093740050
:1007D00038C084E08093A30110925901109258010F
:1007E000E0919E01F0919F0109958091580181113E
:1007F00005C081E08093580110925A01E09159019F
:1008000081E08E0F80935901F0E0E65AFE4F80811F
:10081000809373009091590180915801981720F4AA
:1008200085EC809374000DC085E88093740009C046
:1008300085EC809374001092A30103C010923601DE
:10084000E4DEFF91EF91BF91AF919F918F917F91E6
:100850006F915F914F913F912F910F900BBE0F9031
:100860000FBE0F901F9018951F920F920FB60F9208
:1008700011240BB60F922F933F934F935F936F9377
:100880007F938F939F93AF93BF93EF93FF93E091E9
:10089000A601F091A701309709F00995FF91EF911A
:1008A000BF91AF919F918F917F916F915F914F9188
:1008B0003F912F910F900BBE0F900FBE0F901F9086
:1008C00018951F920F920FB60F9211240BB60F922C
:1008D0002F933F934F935F936F937F938F939F9348
:1008E000AF93BF93EF93FF93E091A401F091A50123
:1008F000309709F00995FF91EF91BF91AF919F91CA
:100900008F917F916F915F914F913F912F910F90B8
:100910000BBE0F900FBE0F901F9018951F920F9255
:100920000FB60F9211240BB60F922F933F934F9354
:100930005F936F937F938F939F93AF93BF93EF9347
:10094000FF93E091AA01F091AB01309709F009956E
:10095000FF91EF91BF91AF919F918F917F916F9197
:100960005F914F913F912F910F900BBE0F900FBE53
:100970000F901F9018951F920F920FB60F9211248F
:100980000BB60F922F933F934F935F936F937F9389
:100990008F939F93AF93BF93EF93FF93E091A80141
:1009A000F091A901309709F00995FF91EF91BF915E
:1009B000AF919F918F917F916F915F914F913F91F7
:1009C0002F910F900BBE0F900FBE0F901F90189598
:1009D000EE0FFF1F0024001C0BBE0790F691E02DC8
:0609E0000994F894FFCF1A
:1009E6000000000000000000000000000000000001
:1009F60000000000000000000000010000000100EF
:100A060000000000000000000100000000000000DF
:060A1600000000000000DA
:00000001FF
